:02000000803E40
:0200030001BD3D
:0200130001D01A
:02002B008076DD
:10004000C2A6C2A775A8A575B82075C80075984046
:100050007589208587E0D2E785E08785FD8D753A33
:1000600000753E00753B02753C00753D00C2017590
:100070003460D2B675CB4C75CA0175CD4C75CC01C8
:1000800075320075310075C80411E3784075313858
:1000900031147531383114753101311475310F3126
:1000A0001480FEC0D0C0E0B2CFB2CA11B8D0E0D048
:1000B000D075A8A575C80432053A053C22C0D0C049
:1000C000E0C2A8C2AA3140D0E0D0D0D2A8D2AA3291
:1000D000C0D0C0E0C2A8C2AA3199D0E0D0D0D2A886
:1000E000D2AA3275603175613275623375634175BC
:1000F0006434756535756636756742756837756938
:1001000038756A39756B43756C2A756D30756E2359
:10011000756F4422C2B6853190C2A7753A00D2A647
:10012000E53AB401FBC2A6D2B622C2B6853290D25D
:10013000A7753A00D2A6E53AB401FBC2A6D2B62210
:10014000E5A0540FF530E5342530F98732315731C9
:100150002AE7F608319022053DE53DB41018753DBB
:100160000010010BD2017531C03114319080077538
:1001700031013114784022D53B12E530C4F5307599
:1001800030A0753B02853032312A80037530A022C1
:08019000753C00E53CB40AFBDC
:1001980022753A00E53AB502FB79407440253D30B6
:1001A80001022410F53F873331B809E9B53FF7223A
:0B01B800D299853399C2993099FD223D
:00000001FF
