:02000000803E40
:02000300019466
:02002B00804F04
:10004000C2A6C2A775A8A575B82075C800753A00E4
:10005000753E00753B02753C14D2B675CB4C75CA23
:100060000175CD4C75CC0175510075500075C804F3
:1000700075500111B875500F11B880FEC0D0C0E0A6
:10008000B2CFB2CA1191D0E0D0D075A8A575C8047E
:1000900032053A22C0D0C0E0C2A8C2AA11E4D0E022
:1000A000D0D0D2A8D2AA32C0D0C0E0C2A8C2AAD0B2
:1000B000E0D0D0D2A8D2AA32C2B6855090C2A775DD
:1000C0003A00D2A6E53AB401FBC2A6D2B622C2B625
:1000D000855190D2A7753A00D2A6E53AB401FBC289
:1000E000A6D2B6227540A085405111CE310822D546
:1000F0003B12E540C4F5407540A0753B0285405178
:0F01000011CE80037540A022D53CFD753C142222
:00000001FF
