:02000000803E40
:0200030001B149
:02002B00806AE9
:10004000C2A6C2A775A8A575B82075C80075984046
:100050007589208587E0D2E785E08785FD8D753A33
:1000600000753E00753B02753C00753D00C2017590
:100070003460D2B675CB4C75CA0175CD4C75CC01C8
:1000800075320075310075C80411D775310131081A
:1000900075310F310880FEC0D0C0E0B2CFB2CA11B6
:1000A000ACD0E0D0D075A8A575C80432053A053C9F
:1000B00022C0D0C0E0C2A8C2AA3134D0E0D0D0D291
:1000C000A8D2AA32C0D0C0E0C2A8C2AA3188D0E06B
:1000D000D0D0D2A8D2AA3275603175613275623340
:1000E0007563417564347565357566367567427537
:1000F0006837756938756A39756B43756C2A756D23
:1001000030756E23756F4422C2B6853190C2A775D3
:100110003A00D2A6E53AB401FBC2A6D2B622C2B6D4
:10012000853290D2A7753A00D2A6E53AB401FBC257
:10013000A6D2B622E5A0540FF530E5342530F98774
:10014000323148311E317F22053DE53DB410167530
:100150003D0010010BD2017531403108317F80051F
:10016000753101310822D53B12E530C4F5307530C8
:10017000A0753B02853032311E80037530A0227598
:100180003C00E53CB414FB22753A00E53AB502FBAD
:0B01900022D299853399C2993099FD65
:01019B002241
:00000001FF
