:02000000803E40
:0200030001AC4E
:02002B008065EE
:10004000C2A6C2A775A8A575B82075C80075984046
:100050007589208587E0D2E785E08785FD8D753A33
:1000600000753E00753B02753C00753D00C201D233
:10007000B675CB4C75CA0175CD4C75CC0175510068
:1000800075500075C80475500111D275500F11D20A
:1000900080FEC0D0C0E0B2CFB2CA11A7D0E0D0D0AD
:1000A00075A8A575C80432053A053C22C0D0C0E049
:1000B000C2A8C2AA11FED0E0D0D0D2A8D2AA32C023
:1000C000D0C0E0C2A8C2AA3149D0E0D0D0D2A8D2D4
:1000D000AA32C2B6855090C2A7753A00D2A6E53AB8
:1000E000B401FBC2A6D2B622C2B6855190D2A77582
:1000F0003A00D2A6E53AB401FBC2A6D2B6227540B8
:10010000A0854051310B11E8314022053DE53DB459
:100110000F14753D00100109D2017550C011D28035
:100120000575500111D222D53B12E540C4F540754A
:1001300040A0753B0285405111E880037540A02224
:10014000753C00E53CB414FB22753A00E53AB50273
:0D015000FB22D299855299C2993099FD2267
:00000001FF
