:02000000803E40
:0200030001B644
:02002B00806FE4
:10004000C2A6C2A775A8A575B82075C80075984046
:100050007589208587E0D2E785E08785FD8D753A33
:1000600000753E00753B02753C00753D00C2017590
:100070004160D2B675CB4C75CA0175CD4C75CC01BB
:1000800075510075500075C80411DC755001310DB3
:1000900075500F310D7550C0310D80FEC0D0C0E0DD
:1000A000B2CFB2CA11B1D0E0D0D075A8A575C8043E
:1000B00032053A053C22C0D0C0E0C2A8C2AA3139FC
:1000C000D0E0D0D0D2A8D2AA32C0D0C0E0C2A8C25C
:1000D000AA318DD0E0D0D0D2A8D2AA3275603175C5
:1000E0006132756233756341756434756535756663
:1000F00036756742756837756938756A39756B4347
:10010000756C2A756D30756E23756F4422C2B68585
:100110005090C2A7753A00D2A6E53AB401FBC2A638
:10012000D2B622C2B6855190D2A7753A00D2A6E5C2
:100130003AB401FBC2A6D2B622E5A0540FF540E5C1
:10014000412540F98751314D3123318422053DE568
:100150003DB41016753D0010010BD2017550C03131
:100160000D31848005755001310D22D53B12E540DB
:10017000C4F5407540A0753B028540513123800392
:100180007540A022753C00E53CB414FB22753A0092
:0B019000E53AB502FB22D29985529996
:06019B00C2993099FD221B
:00000001FF
