:02000000803E40
:0200030001B347
:0200130001C624
:02002B00806CE7
:10004000C2A6C2A775A8A575B82075C80075984046
:100050007589208587E0D2E785E08785FD8D753A33
:1000600000753E00753B02753C00753D00C2017590
:100070003460D2B675CB4C75CA0175CD4C75CC01C8
:1000800075320075310075C80411D9784075310199
:10009000310A75310F310A80FEC0D0C0E0B2CFB254
:1000A000CA11AED0E0D0D075A8A575C80432053A03
:1000B000053C22C0D0C0E0C2A8C2AA3136D0E0D0F0
:1000C000D0D2A8D2AA32C0D0C0E0C2A8C2AA318F72
:1000D000D0E0D0D0D2A8D2AA327560317561327525
:1000E0006233756341756434756535756636756759
:1000F00042756837756938756A39756B43756C2A4E
:10010000756D30756E23756F4422C2B6853190C20D
:10011000A7753A00D2A6E53AB401FBC2A6D2B62230
:10012000C2B6853290D2A7753A00D2A6E53AB4019C
:10013000FBC2A6D2B622E5A0540FF530E534253037
:10014000F98732314D3120E7F608318622053DE549
:100150003DB41018753D0010010BD20175314031CE
:100160000A31868007753101310A784022D53B1269
:10017000E530C4F5307530A0753B02853032312052
:1001800080037530A022753C00E53CB40AFB227563
:070190003A00E53AB502FB5D
:1001970079407440253D3001022410F53F87333103
:1001A700AE09E9B53FF722D299853399C2993099BB
:0201B700FD2227
:00000001FF
