:02000000803E40
:02000300019169
:02002B00804C07
:10004000C2A6C2A775A8A575B82075C800753A00E4
:10005000753E00753B02D2B675CB4C75CA0175CDA5
:100060004C75CC0175510075500075C80475500170
:1000700011B575500F11B580FEC0D0C0E0B2CFB23F
:10008000CA118ED0E0D0D075A8A575C80432053A43
:1000900022C0D0C0E0C2A8C2AA11E1D0E0D0D0D224
:1000A000A8D2AA32C0D0C0E0C2A8C2AAD0E0D0D0A4
:1000B000D2A8D2AA32C2B6855090C2A7753A00D251
:1000C000A6E53AB401FBC2A6D2B622C2B6855190CB
:1000D000D2A7753A00D2A6E53AB401FBC2A6D2B6C1
:1000E00022D53B12E540C4F5407540A0753B028522
:0A00F000405111CB80037540A0229F
:00000001FF
