:02000000803E40
:0200030001BF3B
:0200130001D218
:02002B008078DB
:10004000C2A6C2A775A8A575B82075C80075892174
:10005000759850758805758DFD758BFDD28E753A36
:1000600000753E00753B02753C00753D00C2017590
:100070003460D2B675CB4C75CA0175CD4C75CC01C8
:1000800075320075310075C80411E5311678407578
:100090003138314775313831477531013147753164
:1000A0000F314780FEC0D0C0E0B2CFB2CA11BAD083
:1000B000E0D0D075A8A575C80432053A053C22C029
:1000C000D0C0E0C2A8C2AA3173D0E0D0D0D2A8D2AA
:1000D000AA32C0D0C0E0C2A8C2AA31E8D0E0D0D0D5
:1000E000D2A8D2AA327560317561327562337563F8
:1000F0004175643475653575663675674275683760
:10010000756938756A39756B43756C2A756D30750C
:100110006E23756F442275700175710275720375D7
:10012000730A75740475750575760675770B7578A1
:1001300007757908757A09757B0C757C0F757D00DC
:10014000757E0E757F0D22C2B6853190C2A7753AB5
:1001500000D2A6E53AB401FBC2A6D2B622C2B68549
:100160003290D2A7753A00D2A6E53AB401FBC2A6F6
:10017000D2B62220A51B753B02E5A0540FF530E551
:10018000342530F9873231BC315DE7F60831DF8044
:100190002AD53B1A753B02E5A0540F2470F9E745B8
:0101A000302E
:1001A100F53231BC315DA6320831DF800DE5A05456
:1001B1000F2470F9E7C4F53031DF22053DE53DB488
:1001C1001119753D00100109D2017531C031478007
:1001D1000A75310131477840753D0031DF22753CA8
:1001E10000E53CB405FB22753A00E53AB502FB791E
:1001F100407440253D3001022410F53F87335107FB
:1002010009E9B53FF722D299853399C2993099FD11
:0102110022CA
:00000001FF
