:02000000803E40
:0200030001AE4C
:02002B008067EC
:10004000C2A6C2A775A8A575B82075C80075984046
:100050007589208587E0D2E785E08785FD8D753A33
:1000600000753E00753B02753C00753D00C201D233
:10007000B675CB4C75CA0175CD4C75CC0175510068
:1000800075500075C80411D4755001310575500FB5
:10009000310580FEC0D0C0E0B2CFB2CA11A9D0E015
:1000A000D0D075A8A575C80432053A053C22C0D049
:1000B000C0E0C2A8C2AA3131D0E0D0D0D2A8D2AA22
:1000C00032C0D0C0E0C2A8C2AA3183D0E0D0D0D222
:1000D000A8D2AA32755031755132755233755341D9
:1000E000755434755535755636755742755837758C
:1000F0005938755A49755B43755C2A755D30755E74
:1001000023755F4422C2B6855090C2A7753A00D2CB
:10011000A6E53AB401FBC2A6D2B622C2B68551907A
:10012000D2A7753A00D2A6E53AB401FBC2A6D2B670
:10013000227540A0E5602540F88640854051314554
:10014000311B317A22053DE53DB40F14753D001099
:100150000109D2017550C031058005755001310586
:1001600022D53B12E540C4F5407540A0753B0285A1
:100170004051311B80037540A022753C00E53CB422
:1001800014FB22753A00E53AB502FB22D29985525A
:0701900099C2993099FD228C
:00000001FF
